:020000040800F2
:10000000700C002001010008C70E0008DF0D000879
:10001000C50E00086D0100089D11000800000000D9
:100020000000000000000000000000003111000886
:100030006F01000800000000E90F000833110008FC
:100040001B0100081B0100081B0100081B01000820
:100050001B0100081B0100081B0100081B01000810
:100060001B0100081B0100081B0100081B01000800
:100070001B0100081B0100081B0100081B010008F0
:100080001B0100081B0100081B0100081B010008E0
:100090001B0100081B0100081B0100081B010008D0
:1000A0001B0100081B0100081B0100081B010008C0
:1000B0001B0100081B0100081B0100081B010008B0
:1000C0001B0100081B0100081B0100081B010008A0
:1000D0001B0100081B0100081B0100081B01000890
:1000E0001B0100081B0100081B010008DFF80CD0F1
:1000F00000F02AF80048004779120008700C002030
:100100000648804706480047FEE7FEE7FEE7FEE7B1
:10011000FEE7FEE7FEE7FEE7FEE7FEE785110008E3
:10012000ED000008D2B201E000F8012B491EFBD21D
:1001300070470022F6E710B513460A4604461946F2
:10014000FFF7F0FF204610BD064C074D06E0E068C3
:1001500040F0010394E8070098471034AC42F6D30E
:10016000FFF7C8FFD8160008F8160008FEE770472A
:100170002DE9FF4F83B08146109A1D46080000D537
:100180004842C31700EB537323F00703A0EB030AA5
:10019000C81701EB5070D6084FEAE00819EB050FBD
:1001A00073D4B9F17F0F70DCD1426ED43F296CDC7F
:1001B000002903DAA8F10108CAF1080A500700D0A3
:1001C000761C00275FE000BF08EB070BBBF1070FB1
:1001D0005BDC1BF1020F55DD002451E004EB09004C
:1001E0007F284FDC00284ADBBBF1000F1DDB00F04D
:1001F0009BF801284CD000F097F8002809EB040187
:100200005846009156D000F0F1FE01900598204428
:1002100007FB050001F056F800FA0AF10198414089
:10022000CAB25846009900F0BBFFBAF1000F26D0C1
:10023000BBF1070F23DA1BF1020F20DD00F074F889
:10024000012845D000F070F8002809EB04010BF1FB
:100250000100009150D000F0C9FE019005982044A3
:1002600007FB050001F02EF8CAF10801C84001990A
:10027000484002460BF10100009900F091FF641C18
:10028000AC42ABDB7F1CB7429EDB07B0BDE8F08F12
:1002900009EB04015846009100F0A8FE0190059872
:1002A000204407FB050001F00DF800FA0AF101985F
:1002B0000143B5E700F09AFE01900598204407FB42
:1002C000050000F0FFFF019A00FA0AF08243A8E758
:1002D00009EB04010BF10100009100F087FE019091
:1002E0000598204407FB050000F0ECFFCAF1080167
:1002F000C84001990843BCE700F078FE01900598DA
:10030000204407FB050000F0DDFFCAF10801019A57
:10031000C8408243AEE710B500F078FEBDE810405B
:1003200000F009BE704700000148007870470000E7
:100330001100002070B5044600F00CF90546601C61
:1003400002D004480078044400F004F9401BA042A5
:10035000FAD370BD000000202DE9F84FDFF8B89106
:10036000002409F1040A0AF1040B23460F270BF1BC
:10037000040EC9E00125A5402A40AA427DD1674E5E
:10038000D1F804C0ACEB0608B44532D014DCBCF1A3
:10039000030F3AD009DCBCF1000F2AD0BCF1010FE9
:1003A0001CD0BCF1020F31D11DE0BCF1110F17D0F0
:1003B000BCF1120F2AD119E0B8F5881F19D006DC5C
:1003C000B8F5803F15D0B8F5801F1FD111E0B8F502
:1003D000001F0ED0B8F5041F18D10AE0CB6815E055
:1003E000CB681B1D12E0CB6808330FE0CB680C33E1
:1003F0000CE08B682BB1012B4FF0080303D0456153
:1004000004E0042302E0056100E00023FF2A01D894
:10041000064601E000F104064FEA840501D9A5F182
:100420002005D6F8008007FA05FC28EA0C0803FA34
:1004300005F548EA0508C6F800804D68ED0062D56C
:10044000374DAE6946F00106AE61AD6924F0030692
:1004500005F001050095334D06EB050CDCF808505E
:10046000A607360F07FA06F825EA0805DFF8B88070
:10047000404503D14FF0000817E044E0DFF8AC80BE
:10048000404502D14FF001080FE0DFF8A48040455D
:1004900002D14FF0020808E0DFF89880404502D111
:1004A0004FF0030801E04FF0040808FA06F848EAA4
:1004B0000508CCF808804D68D9F80060ED034D467A
:1004C00001D5164300E096432E604D68DAF80060CF
:1004D000AD03554601D5164300E096432E604D68A6
:1004E000DBF80060ED025D4601D5164300E096435F
:1004F0002E604D68DEF80060AD02754601D51643EA
:1005000000E096432E60641C0D682A46E5407FF4A7
:1005100031AFBDE8F88F0000000401400000111069
:10052000001002400000014000080140000C0140A2
:100530000010014000140140C26821EA02030A4091
:1005400043EA0241016170470AB101617047090441
:10055000FBE70000014880687047000000000020B1
:1005600002488168027811448160704700000020D1
:10057000074810B5016841F010010160032000F048
:1005800067F8002000F006F800F024F8002010BD05
:100590000020024070B50D4D04464FF47A71287862
:1005A000B1FBF0F00A490968B1FBF0F000F003FC80
:1005B00048B9102C07D200222146501E00F028F81E
:1005C00000206C6070BD012070BD000000000020A4
:1005D0000C0000200C4808B5816941F001018161DF
:1005E000816901F001010091C16941F08051C1614F
:1005F000C06900F0805000900448416821F0E0613B
:1006000041F00071416008BD00100240000001404F
:10061000F0B40E4B1B680C46C3F30223C3F107056D
:10062000042D00D90425191D072901D2002300E05B
:10063000DB1E012606FA05F1491E214099409E4025
:10064000761E16403143F0BC00F0F6BD0CED00E024
:10065000064900F0070208684FF6FF03184040EA19
:100660000220034A10430860704700000CED00E0D0
:100670000000FA052DE9F0470F46050061D0434E12
:10068000306800F00700B84209D2306820F0070057
:1006900038433060306800F00700B84251D1286814
:1006A0003B4C810712D5400703D5606840F4E060F9
:1006B00060602878000703D5606840F4605060608F
:1006C0006068A96820F0F000084360602878C007DF
:1006D00028D06868012810D02168022810D0890726
:1006E00000292EDA616821F0030101436160FFF700
:1006F00031FF804641F288390DE021688903EFE738
:100700008901EDE7FFF726FFA0EB0801494502D973
:100710000320BDE8F0876068696800F00C00B0EB6A
:10072000810FEFD1306800F00700B8420BD9306874
:1007300020F0070038433060306800F00700B8420E
:1007400001D00120E5E72878400705D56068E96811
:1007500020F4E060084360602878000706D56068F0
:10076000296920F4605040EAC100606000F018F888
:100770006168084AC1F30311515CC840064908602A
:1007800006480068FFF706FF0020C2E7002002408D
:1007900000100240C81200080C00002004000020D5
:1007A00012A185B00FC98DE80F0014A0144A00688B
:1007B00004905168134801F00C03042B10D0082B4F
:1007C0000ED1C1F38343C9031DF803000AD5516854
:1007D00004AAC1F34041515C0A4A5043B0FBF1F016
:1007E00005B0704708494843FAE7000002030405D2
:1007F000060708090A0B0C0D0E0F1010010200006D
:100800000010024000127A0000093D002DE9F84F67
:10081000040070D02078C04DC00749D06868C0F38C
:100820008100012807D06868C0F38100022809D13F
:100830006868C00306D52868800339D56068002839
:10084000E7D035E06068B0F5803F0BD010B1B0F56F
:10085000A02F11D0286820F480302860286820F468
:10086000802002E0286840F480302860606890B101
:10087000FFF770FE06460AE0286840F480202860F2
:10088000F0E700BFFFF766FE801B642873D8286876
:100890008003F7D50CE0FFF75DFE064605E000BFDC
:1008A000FFF758FE801B6428F0D828688003F7D42F
:1008B00020789A4E80074FF001094FF0000839D593
:1008C000686810F00C0F07D06868C0F38100022838
:1008D00009D16868C00306D42868800714D5206948
:1008E000012808D110E02069B0B1C6F80090FFF7E8
:1008F00031FE074605E00AE1FFF72CFEC01B022887
:10090000C4D828688007F7D52868616920F0F80006
:1009100040EAC10028600DE0C6F80080FFF71AFE2B
:10092000074604E0FFF716FEC01B022823D82868FC
:100930008007F7D4207800072CD57948A169D9B170
:10094000C0F80090FFF706FE074604E0FFF702FE3E
:10095000C01B02280FD8686A8007F7D571484FF48A
:10096000FA510068B0FBF1F0009000BF0098411E02
:100970000091FAD20EE080E0C0F80080FFF7EAFDB7
:10098000074604E0FFF7E6FDC01B022875D8686A39
:100990008007F7D42078400760D5E8690027C000B9
:1009A00008D4E86940F08050E861E869012700F068
:1009B000805000905C480168C90513D401688346E3
:1009C00041F480710160FFF7C5FD824606E000BF7B
:1009D000FFF7C0FDA0EB0A0064284ED8DBF800004A
:1009E000C005F5D5E06801280AD008B1052813D064
:1009F000286A20F001002862286A20F0040002E042
:100A0000286A40F001002862E06841F2883B98B112
:100A1000FFF7A0FD82460BE0286A40F00400286240
:100A2000EEE700BFFFF796FDA0EB0A0159455AD843
:100A3000286A8007F6D50CE0FFF78CFD824605E0BA
:100A4000FFF788FDA0EB0A0159454CD8286A8007BA
:100A5000F6D41FB1E86920F08050E861E06988B3FE
:100A60006968C1F38101022944D00228C6F8608078
:100A700004D0FFF76FFD044638E034E0FFF76AFD6D
:100A8000074604E0FFF766FDC01B02282BD8286844
:100A90008001F7D4206AB0F5803F05D16868A1686D
:100AA00020F4003008436860D4E90801084369680D
:100AB00021F4741108436860C6F86090FFF74AFD9E
:100AC000044606E025E000BFFFF744FD001B0228B6
:100AD00009D828688001F7D51BE000BFFFF73AFD71
:100AE000001B022802D90320BDE8F88F2868800186
:100AF000F4D40EE00128F7D06868226A00F480314F
:100B0000914204D1616A00F47010884201D0012042
:100B1000EAE70020E8E7000000100240000042423F
:100B2000800442420C0000200070004070B50400B8
:100B300009D0606A002540B125616561A56294F81D
:100B4000510040B10CE0012070BD6068B0F5827FBB
:100B5000F4D0E561F2E784F85050204600F040F808
:100B6000022084F851002068016821F040010160F2
:100B7000A088218900F4827001F404410843A1890E
:100B800001F400610843217C01F002010843217D4A
:100B900001F001010843218B01F400710843217F1A
:100BA00001F03801084394F8201001F08001084357
:100BB000218D01F40051084321680860A0690421D7
:100BC00001EA1040216848602068C16921F4006191
:100BD000C1616565012084F85100002070BD0000EE
:100BE00030B585B000240094019402940394006809
:100BF0001449884223D11448816941F480518161AC
:100C0000816901F480510491816941F0040181619D
:100C100080690E4D00F004000490A0200090022096
:100C200001900320039069462846FFF795FB40207A
:100C3000CDE90004694628460294FFF78DFB05B014
:100C400030BD0000003001400010024000080140AB
:100C50002DE9F84F044690F8500000271D4616462F
:100C6000894601280DD04FF0010B84F850B0FFF7F2
:100C700071FC804694F85100BA46012804D002273E
:100C800093E00220BDE8F88FB9F1000F73D0002E79
:100C900071D0032084F85100C4F854A0C4F83090F7
:100CA000A686E686C4F838A0A4F83CA0A4F83EA026
:100CB000C4F844A0C4F840A0A068B0F5004F09D122
:100CC0002068016821F0400101602068016841F45A
:100CD0008041016020680168490603D4016841F041
:100CE00040010160E068B0F5006F606803D030B388
:100CF000012E24D041E008B1012E1CD1206B2168C7
:100D00000088C86006E020688168890709D5216BE2
:100D10000988C160206B801C2063E08E401EE08645
:100D200009E0FFF717FCA0EB0800A84202D3681CFB
:100D300001D031E07DB3E08E0028E4D120E0206BCB
:100D400021680078087306E020688168890709D562
:100D5000216B09780173206B401C2063E08E401EDC
:100D6000E0860AE0FFF7F6FBA0EB0800A84203D3F9
:100D7000681C02D010E017E06DB1E08E0028E3D1CE
:100D800042462946204600F05DF908B12020606502
:100D9000A06818B106E0FFE7032706E02068C168F5
:100DA00080680090606D00B1012784F851B084F82C
:100DB00050A0384666E710B5401EB0F1807F01D3E1
:100DC000012010BD4FF0E02460610F21601700F09A
:100DD00033FA0020A06107202061002010BDFEE74B
:100DE000FFF799BA2DE9F04186B00024204800941D
:100DF000019402940394816941F010018161816939
:100E000001F010010491816941F020018161816943
:100E100001F020010491816941F004018161806940
:100E2000144F00F004004FF40055049000222946AE
:100E30003846FFF789FBDFF8408000221C2140463E
:100E4000FFF782FB0095022601250396CDE90154A8
:100E500069463846FFF780FA1C20CDE90005CDE948
:100E6000024669464046FFF777FA06B0BDE8F081D2
:100E7000001002400010014000080140104810B569
:100E80000E4901604FF48271416000218160C160B0
:100E90004FF400720161C0E905120822C0E9072180
:100EA000416281620A21C162FFF740FE002803D03F
:100EB000BDE81040FFF736BA10BD00000030014019
:100EC00014000020FEE7704770B5002404F1B00064
:100ED000C0B200F075F9002000F072F9102000F0A7
:100EE0006FF90025002000F089F96D1CEDB2802D0E
:100EF000F8D3641CE4B2082CE8D370BD70B5054685
:100F00005FF0000404F1B000C0B200F059F9002015
:100F100000F056F9102000F053F9002615F8010BE7
:100F200000F06CF9761CF6B2802EF7D3641CE4B2A4
:100F3000082CE7D370BD10B5AE2000F041F9202099
:100F400000F03EF9102000F03BF9B02000F038F935
:100F5000C82000F035F9002000F032F9102000F030
:100F60002FF9402000F02CF9812000F029F9FF2012
:100F700000F026F9A12000F023F9A62000F020F9C6
:100F8000A82000F01DF93F2000F01AF9A42000F07D
:100F900017F9D32000F014F9002000F011F9D52042
:100FA00000F00EF9F02000F00BF9D92000F008F95C
:100FB000222000F005F9DA2000F002F9122000F0FA
:100FC000FFF8DB2000F0FCF8202000F0F9F88D207D
:100FD00000F0F6F8142000F0F3F8AF2000F0F0F87D
:100FE000BDE81040FFF770BF70470000044A127858
:100FF0000AB1044A00E0044A02EBC010405C7047AA
:10100000100000206C0000206C04002010B50C4C77
:10101000012210212046FFF797FA6420FFF78AF992
:10102000002210212046FFF78FFA6420FFF782F993
:1010300020460122BDE810401021FFF785BA0000CC
:101040000008014038B50B4600920446002280217A
:1010500000F008F8002804D0606D40F020006065C2
:10106000032038BD2DE9F8431E46914688460446C4
:10107000089DFFF76FFA401B351AFFF76BFA07461A
:1010800025480068C0F3CB30684338E0701C37D087
:10109000FFF760FAC01BA84203D215B1009860B3F5
:1010A0002CE02068416821F0E00141606068B0F503
:1010B000827F0BD1A068B0F5004F02D0B0F5806FF1
:1010C00004D12068016821F040010160A06AB0F5F8
:1010D000005F09D12068016821F400510160206897
:1010E000016841F400510160012084F851000020A2
:1010F00084F850000320BDE8F8830025401E0090CE
:101100002068816838EA010004D000214945BDD13A
:101110000020F0E70121F9E70C00002001B50A23C7
:10112000012269460148FFF793FD08BD1400002025
:101130007047FFF715BA30B58FB028216846FEF723
:10114000F8FF14210AA8FEF7F4FF01210804CDE9F5
:1011500000100024029402250491CDE907504FF4B9
:10116000E01009906846FFF751FB0F20CDE90A0512
:101170006802CDE90C4002210AA80E94FFF77AFA22
:101180000FB030BD704700F007B800000148FFF70E
:10119000B5BE00006C000020FFF7F8BFFEE70000BE
:1011A000044B1B780BB1044B00E0044B03EBC01065
:1011B00042547047100000206C0000206C04002096
:1011C00070B50D4C0546002208212046FFF7BCF9FA
:1011D000002204212046FFF7B7F92846FFF79EFFBB
:1011E000012204212046FFF7AFF92046BDE87040F8
:1011F00001220821FFF7A8B90008014070B50D4C85
:101200000546012208212046FFF79EF9002204210D
:101210002046FFF799F92846FFF780FF01220421B5
:101220002046FFF791F92046BDE8704001220821D1
:10123000FFF78AB9000801400907090E002804DBFE
:1012400000F1E02080F80014704700F00F0000F17A
:10125000E02080F8141D704702E008C8121F08C182
:10126000002AFAD170477047002001E001C1121F27
:10127000002AFBD17047000008B5FFF779F9FFF7A6
:101280005AFFFFF7AFFDFFF7F9FDFFF7A9FD40207B
:10129000002100908023094A0846FEF769FFFFF706
:1012A00072FF074D4FF400544FF4FA76214628465A
:1012B000FFF742F93046FFF73DF8F7E7D81200088C
:1012C000001001400078704700000000000000009E
:1012D00001020304060708090000000000000000E6
:1012E00000000000000000000000000000000000FE
:1012F00000000000000000000000000000000000EE
:101300000000000000000080C06030180C060301DF
:101310000103060C183060C08000000000000000CF
:1013200000000000000000000000000000000000BD
:1013300000000000000000000000000000000000AD
:10134000000000000000000000000000000000009D
:10135000000000000000000000000000000000008D
:10136000000000000000000000000000000000007D
:101370000000000000000000FFFF030303030383DD
:10138000C363331B0F07030303838383C3C3C343B5
:1013900043C3C3C3838383030303070F1B3363C3A5
:1013A000830303030303FFFF0000000000000000AD
:1013B000000000000000000000000000000000002D
:1013C000000000000000000000000000000000001D
:1013D000000000000000000000000000000000000D
:1013E00000000000000000000000000000000000FD
:1013F0000000000000000080FFFF30180C06030111
:1014000080E030180C060603030301010100000010
:1014100000000001010103030706061C1830E080EC
:101420000103060C1830FFFF8000000000000000E0
:1014300000000000000000000000000000000000AC
:10144000000000000000000000000000000000009C
:10145000000000000000000000000000000000008C
:1014600000000000000000000000000000000080FC
:10147000C06030180C060301FFFF00000000F07E82
:101480000701000000000000000000000000000054
:101490000000000000000000000000000000010744
:1014A0007EF000000000FFFF0103060C183060C052
:1014B00080000000000000000000000000000000AC
:1014C000000000000000000000000000000000001C
:1014D000000000000000000000000000000000000C
:1014E00000000000000000000000000000000001FB
:1014F00003060C183060C080FFFF000000000F7E64
:10150000F08000000000000000000000000000006B
:10151000000000000000000000000000000080E06B
:101520007C0F00000000FFFF80C06030180C060335
:1015300001000000000000000000000000000000AA
:10154000000000000000000000000000000000009B
:10155000000000000000000000000000000000008B
:10156000000000000000000000000000000000007B
:101570000000000000000001FFFF0C183060C08078
:1015800001070E1C306060C0C080808080000000B9
:10159000000000008080C0C0C0407030180C0701FF
:1015A00080C06030180CFFFF010000000000000048
:1015B000000000000000000000000000000000002B
:1015C000000000000000000000000000000000001B
:1015D000000000000000000000000000000000000B
:1015E00000000000000000000000000000000000FB
:1015F0000000000000000000FFFFC0C0C0C0C0C16C
:10160000C3C6CCD8F0E0C0C0C0C1C1C1C3C3C3C24F
:10161000C2C2C3C3C1C1C1C0C0C0E0F0D8CCC6C340
:10162000C1C0C0C0C0C0FFFF00000000000000003B
:1016300000000000000000000000000000000000AA
:10164000000000000000000000000000000000009A
:10165000000000000000000000000000000000008A
:10166000000000000000000000000000000000007A
:10167000000000000000000000000000000000006A
:10168000000000000000000103060C183060C0805C
:1016900080C06030180C060301000000000000004C
:1016A000000000000000000000000000000000003A
:1016B000000000000000000000000000000000002A
:1016C000000000000000000000000000000000001A
:1016D0000000000000000000F816000800000020D4
:1016E00014000000581200080C1700081400002015
:1016F0005C0C0000681200080100000010000000EF
:0C170000000000000024F40001010100C2
:04000005080000ED02
:00000001FF
