:020000040800F2
:1000000000500020F1130008E7050008E90500088A
:10001000EB050008ED050008EF05000800000000F2
:10002000000000000000000000000000F1050008D2
:10003000F305000800000000F5050008F7050008BA
:10004000391400083914000839140008391400085C
:10005000391400083914000839140008391400084C
:10006000391400083914000839140008391400083C
:10007000391400083914000839140008391400082C
:10008000391400083914000839140008391400081C
:10009000391400083914000839140008391400080C
:1000A00039140008391400083914000839140008FC
:1000B00039140008391400083914000839140008EC
:1000C00039140008391400083914000839140008DC
:1000D00039140008391400083914000839140008CC
:1000E0003914000839140008391400080000000011
:1000F0000000000000000000000000000000000000
:0C01000000000000000000005FF808F1A3
:10010C0010B5054C237833B9044B13B10448AFF345
:10011C0000800123237010BD0C00002000000000A3
:10012C008414000808B5034B1BB103490348AFF313
:10013C00008008BD0000000010000020841400089E
:10014C002DE9F04188B0002404940594069407949A
:10015C002C4B9A6942F010029A619A6902F01002D3
:10016C000092009A9A6942F020029A619A6902F010
:10017C0020020192019A9A6942F004029A619A69EA
:10018C0002F004020292029A9A6942F008029A6101
:10019C009B6903F008030393039B1B4D22464FF40A
:1001AC000051284601F0B0F8DFF864802246402167
:1001BC00404601F0A9F8154F22460321384601F0BC
:1001CC00A3F84FF4005304930126059606940223DA
:1001DC00079304A9284600F087FF40230493059653
:1001EC0006940325079504A9404600F07DFF04956D
:1001FC0005960694079504A9384600F075FF08B0DB
:10020C00BDE8F0810010024000100140000C0140DC
:10021C000008014008B50C480C4B03604FF4827386
:10022C00436000238360C360036143614FF4007239
:10023C0082613022C2610362436283620A23C36219
:10024C0000F0B8FA08BD00BF2800002000300140C3
:10025C0030B591B0002409940B940C940194029441
:10026C00039404940594012206924FF4803307936F
:10027C0008940A9202250D950E934FF4E0130F93F8
:10028C0006A800F03DFC0F230193029503944FF454
:10029C00806304930594294601A800F06FFE11B009
:1002AC0030BD000008B500F0DDFBFFF7D1FFFFF714
:1002BC0047FFFFF7AFFF00F025F900F070F80923B6
:1002CC00074A0421002000F0DDF84FF400510548E6
:1002DC0001F020F84FF4FA7000F0E8FBF5E700BFEE
:1002EC0015CD5B070010014008B5012211460248EC
:1002FC0001F00AF808BD00BF000C014008B500224F
:10030C000121024801F000F808BD00BF000C0140BB
:10031C0008B501224021024800F0F6FF08BD00BFDD
:10032C000008014008B500224021024800F0ECFF13
:10033C0008BD00BF0008014000B583B08DF8070070
:10034C000A2301220DF10701024800F08EFA03B0D6
:10035C005DF804FB0030014010B50446FFF7C4FF04
:10036C002046FFF7E9FF10BD10B50446FFF7C6FFA6
:10037C002046FFF7E1FF10BD10B50446A1F1500077
:10038C00C0B2FFF7F1FF200940F01000FFF7ECFFBF
:10039C0004F00E0040F00100FFF7E6FF10BD38B589
:1003AC00002501E00135EDB2072D14D8A5F1500060
:1003BC00C0B2FFF7D9FF0220FFF7D6FF1020FFF7DE
:1003CC00D3FF002414F0800FECD10020FFF7C4FF02
:1003DC000134E4B2F6E738BD2DE9F04180460F4612
:1003EC001E46203AD5B210F0800F05D13946404652
:1003FC00FFF7C2FF00240CE00237FFB24FF00008F9
:10040C00F4E704EB0512194B985CFFF7A5FF0134D8
:10041C00E4B2072C0AD8012EF3D104EB0513134ACE
:10042C00D05CC043C0B2FFF797FFF0E7791CC9B2AC
:10043C004046FFF7A1FF002408E004EB0512083248
:10044C000A4B985CFFF788FF0134E4B2072C0BD8F9
:10045C00012EF2D104EB05130833044AD05CC043DF
:10046C00C0B2FFF779FFEFE7BDE8F0819C140008FC
:10047C00024601204B1EDBB219B102FB00F01946FB
:10048C00F8E770472DE9F0478246894690461E46AC
:10049C0000273D4615E0E800C0B25044002320225E
:1004AC004946C0B2FFF798FF09E0E800C0B230340B
:1004BC0050440023E2B24946C0B2FFF78DFF01352C
:1004CC00EDB2B5421AD2711BC9B20139C9B20A20B8
:1004DC00FFF7CEFFB8FBF0F0094CA4FB0034E408A6
:1004EC0004EB8404A0EB4404E4B2002FDDD1731EB2
:1004FC009D42DADA002CCED00127D6E7BDE8F08792
:10050C00CDCCCCCC08B5FFF703FF642000F0CEFABD
:10051C00FFF708FF642000F0C9FAFFF7F9FEAE20E0
:10052C00FFF722FF0220FFF71FFF1020FFF71CFF31
:10053C004020FFF719FF8120FFF716FFCF20FFF7B0
:10054C0013FFA120FFF710FFC820FFF70DFFA62017
:10055C00FFF70AFFA820FFF707FF3F20FFF704FF74
:10056C00D320FFF701FF0020FFF7FEFED520FFF799
:10057C00FBFE8020FFF7F8FED920FFF7F5FEF120F7
:10058C00FFF7F2FEDA20FFF7EFFE1220FFF7ECFE8A
:10059C00DB20FFF7E9FE4020FFF7E6FE2020FFF707
:1005AC00E3FE0220FFF7E0FE8D20FFF7DDFE1420B6
:1005BC00FFF7DAFEA420FFF7D7FEA620FFF7D4FE44
:1005CC00AF20FFF7D1FEAF20FFF7CEFEFFF7E7FE1F
:1005DC0000210846FFF7D0FE08BD7047FEE7FEE796
:1005EC00FEE7FEE770477047704708B500F04CFA1D
:1005FC0008BD000082B00E4B9A6942F001029A616C
:10060C009A6902F001020092009ADA6942F0805273
:10061C00DA61DB6903F080530193019B054A53684F
:10062C0023F0E06343F00073536002B0704700BFE7
:10063C00001002400000014010B586B00023029368
:10064C0003930493059302681A4B9A4201D006B0A7
:10065C0010BD03F560439A6942F480529A619A691D
:10066C0002F480520092009A9A6942F008029A6150
:10067C009B6903F008030193019B28230293022337
:10068C000393032305930C4C02A9204600F02CFD88
:10069C001023029300230393049302A9204600F035
:1006AC0023FD064A536843F0E06343F001035360B3
:1006BC00CDE700BF00300140000C014000000140BC
:1006CC002DE9F04782B00546884617461E4600F0D5
:1006DC00E7F90A9B1B1A03EB060900F0E1F98246C5
:1006EC002A4B1B68C3F3CB3309FB03F301932B6831
:1006FC009C6838EA04030CBF01240024BC4240D09F
:10070C00B6F1FF3FF3D000F0CBF9A0EB0A0048455F
:10071C000AD2B9F1000F07D0019A02B14A46019BE7
:10072C00013B01939146E2E72A68536823F0E0030A
:10073C0053606B68B3F5827F0BD0AB6AB3F5005F87
:10074C0014D0012385F85130002385F85030032054
:10075C0018E0AB68B3F5004F02D0B3F5806FECD165
:10076C002A68136823F040031360E6E72A681368CD
:10077C0023F4005313602A68136843F40053136086
:10078C00DFE7002002B0BDE8F08700BF08000020C2
:10079C0010B582B004460B46009200228021FFF770
:1007AC008FFF08B902B010BD636D43F02003636581
:1007BC000320F7E7002856D010B50446436A33B936
:1007CC004368B3F5827F05D00023C36102E00023A8
:1007DC00036143610023A36294F85130002B3CD099
:1007EC00022384F851302268136823F0400313600D
:1007FC00636803F48273A26802F404421343E26850
:10080C0002F400621343226902F00202134362698C
:10081C0002F001021343A26902F400721343E2696D
:10082C0002F038021343226A02F080021343A26AD8
:10083C0002F40052216813430B60638B226803F0AF
:10084C00040353602268D36923F40063D36100204E
:10085C006065012384F8513010BD84F85030204677
:10086C00FFF7EAFEBCE7012070472DE9F04383B0A7
:10087C001D4690F85030012B00F0CC800446884681
:10088C009146012380F8503000F00AF9074694F89D
:10089C005160F6B2012E40F0AA80B8F1000F00F0C2
:1008AC00A780B9F1000F00F0A380032384F8513026
:1008BC0000236365C4F83080A4F83490A4F8369013
:1008CC00A363A387E38763642364A368B3F5004F32
:1008DC001ED023681A6812F0400F03D11A6842F038
:1008EC0040021A60E368B3F5006F1CD0636813B163
:1008FC00B9F1010F52D1226B236812781A73236B52
:10090C0001332363E38E9BB2013B9BB2E38645E04C
:10091C002268136823F0400313602268136843F4C1
:10092C0080431360D5E7636813B1B9F1010F16D199
:10093C00226B23681288DA60236B02332363E38E05
:10094C009BB2013B9BB2E38609E000F0A9F8C01B07
:10095C00A84202D3B5F1FF3F54D1002D54D0E38E01
:10096C009BB2002B2ED023689A6812F0020FECD0A9
:10097C00226B1288DA60236B02332363E38E9BB203
:10098C00013B9BB2E386EAE700F08AF8C01BA84261
:10099C0002D3B5F1FF3F39D1002D39D0E38E9BB294
:1009AC0083B123689A6812F0020FEDD0226B127893
:1009BC001A73236B01332363E28E92B2013A92B223
:1009CC00E286EBE73A4629462046FFF7E1FE08B1FE
:1009DC0020236365A36833B901932368DA68019215
:1009EC009B680193019B636D13B9002600E00226FE
:1009FC00012384F85130002384F85030304603B082
:100A0C00BDE8F0830326F3E70326F1E70326EFE7BF
:100A1C000326EDE70226F1E710B504460E4B1878D5
:100A2C004FF47A73B3FBF0F30C4A1068B0FBF3F09D
:100A3C0000F0C0FC68B90F2C01D901200AE000229B
:100A4C0021464FF0FF3000F081FC054B1C6000206C
:100A5C0000E0012010BD00BF0000002008000020B5
:100A6C000400002008B5074A136843F01003136014
:100A7C00032000F059FC0020FFF7CEFFFFF7BAFD72
:100A8C00002008BD00200240034A1168034B1B786C
:100A9C000B441360704700BF800000200000002052
:100AAC00014B1868704700BF8000002038B5044621
:100ABC00FFF7F6FF0546B4F1FF3F02D0044B1B785D
:100ACC001C44FFF7EDFF401BA042FAD338BD00BF1A
:100ADC000000002082B0084B1B68084AA2FB0323CD
:100AEC005B0A00FB03F3019300BF019B5A1E0192AA
:100AFC00002BF9D102B0704708000020D34D6210D2
:100B0C00002800F0F18170B582B00446036813F040
:100B1C00010F2CD0AA4B5B6803F00C03042B1DD0E7
:100B2C00A74B5B6803F00C03082B12D06368B3F57A
:100B3C00803F41D0002B55D103F1804303F50433A2
:100B4C001A6822F480321A601A6822F480221A6021
:100B5C0037E09B4B5B6813F4803FE7D0984B1B68E6
:100B6C0013F4003F03D06368002B00F0BF812368AF
:100B7C0013F0020F75D0924B5B6813F00C0F5FD023
:100B8C008F4B5B6803F00C03082B54D02369002BAC
:100B9C0000F089808B4B01221A60FFF781FF05461C
:100BAC00874B1B6813F0020F74D1FFF779FF401BC2
:100BBC000228F5D903209EE1814A136843F480335F
:100BCC001360636843B3FFF76BFF05467C4B1B68F0
:100BDC0013F4003FCBD1FFF763FF401B6428F5D91A
:100BEC00032088E1B3F5A02F09D0754B1A6822F4C5
:100BFC0080321A601A6822F480221A60E1E703F14D
:100C0C008043A3F53C331A6842F480221A601A68B8
:100C1C0042F480321A60D4E7FFF742FF0546684B76
:100C2C001B6813F4003FA2D0FFF73AFF401B642867
:100C3C00F5D903205FE1624B5B6813F4803FA5D1CB
:100C4C005F4B1B6813F0020F03D02369012B40F09C
:100C5C004F815B4A136823F0F803616943EAC103CF
:100C6C001360236813F0080F32D0A369002B45D012
:100C7C00554B01221A60FFF713FF0546504B5B6A78
:100C8C0013F0020F21D1FFF70BFF401B0228F5D9FF
:100C9C00032030E14A4A136823F0F803616943EA00
:100CAC00C1031360DDE7474B00221A60FFF7F8FE23
:100CBC000546434B1B6813F0020FD2D0FFF7F0FE32
:100CCC00401B0228F5D9032015E10120FFF702FF94
:100CDC00236813F0040F00F09780394BDB6913F095
:100CEC00805F1DD1364BDA6942F08052DA61DB69E4
:100CFC0003F080530193019B012512E0324B00223B
:100D0C001A60FFF7CDFE05462D4B5B6A13F0020F00
:100D1C00DED0FFF7C5FE401B0228F5D90320EAE020
:100D2C0000252A4B1B6813F4807F11D0E368012B3C
:100D3C0022D0002B38D103F1804303F504331A6A17
:100D4C0022F001021A621A6A22F004021A6218E0F6
:100D5C001E4A136843F480731360FFF7A1FE064626
:100D6C001A4B1B6813F4807FE0D1FFF799FE801BB0
:100D7C006428F5D90320BEE0114A136A43F001033D
:100D8C001362E36873B3FFF78BFE06460C4B1B6ACA
:100D9C0013F0020F37D1FFF783FE801B41F288332B
:100DAC009842F3D90320A6E0052B11D0044B1A6A04
:100DBC0022F001021A621A6A22F004021A62E0E7B7
:100DCC000010024000004242800442420070004089
:100DDC004D4B1A6A42F004021A621A6A42F001027E
:100DEC001A62CEE7FFF75CFE0646474B1B6A13F010
:100DFC00020F08D0FFF754FE801B41F28833984253
:100E0C00F3D9032077E0E5B9E369002B72D03E4AB1
:100E1C00526802F00C02082A56D0022B17D03B4B1A
:100E2C0000221A60FFF73CFE0446374B1B6813F098
:100E3C00007F47D0FFF734FE001B0228F5D90320B2
:100E4C0059E0314AD36923F08053D361DCE72F4B4F
:100E5C0000221A60FFF724FE05462B4B1B6813F08B
:100E6C00007F06D0FFF71CFE401B0228F5D903209B
:100E7C0041E0236AB3F5803F1AD023494B6823F431
:100E8C007413226A606A024313434B601F4B0122A6
:100E9C001A60FFF705FE04461B4B1B6813F0007F1E
:100EAC000ED1FFF7FDFD001B0228F5D9032022E02F
:100EBC00154A536823F40033A1680B435360DCE7F5
:100ECC00002018E0002016E0012B16D00E4B5B68BA
:100EDC0003F48031226A914211D103F47013626AD7
:100EEC0093420ED1002006E001207047012002E061
:100EFC00012000E0002002B070BD0120FBE70120C2
:100F0C00F9E70120F7E700BF001002406000424201
:100F1C0086B0164B0FCB0DF1180C0CE90F0040F2FC
:100F2C000123ADF80430124B5B6803F00C02082A65
:100F3C0002D0104806B07047C3F38342624412F8E3
:100F4C00102C13F4803F0CD0094B5B68C3F3404367
:100F5C00634413F8143C074800FB02F0B0FBF3F0B9
:100F6C00E8E7054800FB02F0E4E700BF8C1A000834
:100F7C000010024000127A0000093D00002800F029
:100F8C00A08070B50D460446524B1B6803F0070356
:100F9C008B420BD24F4A136823F007030B431360A9
:100FAC00136803F007038B4240F08D80236813F025
:100FBC00020F17D013F0040F04D0474A536843F4C0
:100FCC00E0635360236813F0080F04D0424A53685F
:100FDC0043F460535360404A536823F0F003A16814
:100FEC000B435360236813F0010F31D06368012B5E
:100FFC0020D0022B25D0384A126812F0020F64D090
:10100C0035494A6822F0030213434B60FFF748FD51
:10101C000646314B5B6803F00C036268B3EB820F3E
:10102C0016D0FFF73DFD801B41F288339842F0D972
:10103C00032045E0284A126812F4003FE0D1012059
:10104C003EE0254A126812F0007FD9D1012037E02A
:10105C00204B1B6803F00703AB420AD91D4A1368E7
:10106C0023F007032B431360136803F00703AB4211
:10107C002DD1236813F0040F06D0174A536823F4BC
:10108C00E063E1680B435360236813F0080F07D04B
:10109C00114A536823F46053216943EAC103536036
:1010AC00FFF736FF0C4B5B68C3F303130B4AD35C9F
:1010BC00D8400B4B18600B4B1868FFF7ADFC0020A9
:1010CC0070BD012070470120FAE70120F8E70120EC
:1010DC00F6E700BF0020024000100240A01A0008F2
:1010EC000800002004000020F0B482B000252C463B
:1010FC00A3E07F4FBB4210D007D97E4FBB420CD030
:10110C0007F58037BB4208D013E0A7F58017BB4228
:10111C0003D007F57027BB4207D18B68002B58D042
:10112C00012B51D04261082503E0A7F58017BB4283
:10113C00F3D0FF2E4FD88446FF2E4FD8A200DCF8F8
:10114C0000300F27974023EA070305FA02F21343F6
:10115C00CCF800304B6813F0805F6DD0664B9A6909
:10116C0042F001029A619B6903F001030193019B18
:10117C00A208971C614B53F8273004F00307BF00FB
:10118C004FF00F0C0CFA07FC23EA0C0C5C4B98424A
:10119C002AD003F58063984200F08A8003F58063BF
:1011AC00984200F0878003F5806398421AD004239C
:1011BC001BE0CD68BDE7CD680435BAE7CD680835CE
:1011CC00B7E7CD680C35B4E702610825B1E7002517
:1011DC00AFE70425ADE700F1040CADE7A4F108027C
:1011EC009200ACE7032300E00023BB4043EA0C036E
:1011FC000232424F47F822304B6813F4803F5BD0E9
:10120C00404A1368334313604B6813F4003F59D0C2
:10121C003C4A5368334353604B6813F4801F57D0D8
:10122C00384A9368334393604B6813F4001F55D0CE
:10123C00344AD3681E43D66001340B6833FA04F287
:10124C0052D00122A24003EA020632EA0303F3D190
:10125C004B68122B3FF64DAF122B3FF66AAF01A72E
:10126C0057F823F027110008BF110008C911000816
:10127C00DB1100083F1100083F1100083F11000866
:10128C003F1100083F1100083F1100083F110008F2
:10129C003F1100083F1100083F1100083F110008E2
:1012AC003F1100083F110008C3110008CF110008BE
:1012BC0001239AE7022398E7124A136823EA0603EC
:1012CC001360A1E70F4A536823EA06035360A3E7B0
:1012DC000C4A936823EA06039360A5E7094AD3688E
:1012EC0023EA0606D660A7E702B0F0BC704700BF41
:1012FC0000002210000031100010024000000140DC
:10130C0000080140000401400AB101617047090462
:10131C0001617047C36801EA030221EA030141EA53
:10132C000241016170470000074AD36823F4E0636F
:10133C001B041B0C000200F4E060034343F0BF638A
:10134C0043F40033D360704700ED00E030B4174B2A
:10135C00DB68C3F30223C3F10704042C28BF042465
:10136C001D1D062D18D9033B4FF0FF3505FA04F46B
:10137C0021EA0401994005FA03F322EA0303194315
:10138C0000280BDB0901C9B200F1604000F5614097
:10139C0080F8001330BC70470023E5E700F00F0025
:1013AC000901C9B2024B1954F4E700BF00ED00E08B
:1013BC0014ED00E00138B0F1807F0AD2064B586082
:1013CC00064AF02182F823100020986007221A6048
:1013DC0070470120704700BF10E000E000ED00E016
:1013EC0070470000002103E00B4B5B584350043165
:1013FC000A480B4B42189A42F6D30A4A02E00023E1
:10140C0042F8043B084B9A42F9D3FFF7E9FF00F08E
:10141C000FF8FEF747FF7047B81A000800000020CD
:10142C000C0000200C00002084000020FEE70000CF
:10143C0070B500260C4D0D4C641BA410A64209D1AE
:10144C0000F01AF800260A4D0A4C641BA410A642A0
:10145C0005D170BD55F8043B98470136EEE755F8B9
:10146C00043B98470136F2E7B01A0008B01A00089E
:10147C00B01A0008B41A0008F8B500BFF8BC08BCD4
:10148C009E467047F8B500BFF8BC08BC9E46704736
:10149C000000000000000000000000000000000040
:1014AC00000000F8000000000000003330000000D5
:1014BC0000100C06100C06000000000000000000DC
:1014CC0040C07840C0784000043F04043F0404004E
:1014DC00007088FC08300000001820FF211E00005E
:1014EC00F008F000E018000000211C031E211E0073
:1014FC0000F00888700000001E21232419272110F9
:10150C0010160E000000000000000000000000009B
:10151C00000000E018040200000000071820400042
:10152C0000020418E0000000004020180700000032
:10153C00404080F0804040000202010F0102020096
:10154C00000000F0000000000101011F010101007A
:10155C00000000000000000080B0700000000000DF
:10156C000000000000000000000101010101010168
:10157C0000000000000000000030300000000000FF
:10158C0000000000806018040060180601000000D4
:10159C0000E010080810E000000F102020100F00D1
:1015AC00001010F8000000000020203F2020000058
:1015BC0000700808088870000030282422213000B0
:1015CC0000300888884830000018202020110E00B8
:1015DC000000C02010F8000000070424243F240061
:1015EC0000F80888880808000019212020110E0036
:1015FC0000E0108888180000000F112020110E0048
:10160C0000380808C83808000000003F000000003F
:10161C000070880808887000001C222121221C0000
:10162C0000E010080810E0000000312222110F0029
:10163C00000000C0C00000000000003030000000BE
:10164C00000000800000000000008060000000002E
:10165C000000804020100800000102040810200047
:10166C004040404040404000040404040404040092
:10167C000008102040800000002010080402010027
:10168C00007048080808F000000000303601000027
:10169C00C030C828E810E0000718272423140B00DA
:1016AC000000C038E0000000203C23020227382054
:1016BC0008F8888888700000203F202020110E0038
:1016CC00C03008080808380007182020201008002F
:1016DC0008F808080810E000203F202020100F0018
:1016EC0008F88888E8081000203F202023201800E4
:1016FC0008F88888E8081000203F2000030000004C
:10170C00C03008080838000007182020221E0200EC
:10171C0008F808000008F808203F210101213F20AB
:10172C00000808F8080800000020203F20200000D6
:10173C0000000808F8080800C08080807F000000C6
:10174C0008F888C028180800203F200126382000FF
:10175C0008F8080000000000203F20202020300066
:10176C0008F8F800F8F80800203F003F003F200080
:10177C0008F830C00008F808203F200007183F0088
:10178C00E01008080810E0000F10202020100F00B7
:10179C0008F808080808F000203F210101010000AA
:1017AC00E01008080810E0000F18242438504F00EF
:1017BC0008F8888888887000203F2000030C3020AF
:1017CC0000708808080838000038202121221C00ED
:1017DC00180808F8080818000000203F2000000036
:1017EC0008F808000008F808001F202020201F001F
:1017FC000878880000C83808000007380E0100007F
:10180C00F80800F80008F800033C0700073C030048
:10181C00081868808068180820302C03032C3020AE
:10182C000838C800C83808000000203F200000001D
:10183C0010080808C8380800203826212020180075
:10184C00000000FE020202000000007F4040400049
:10185C00000C30C000000000000000010638C00081
:10186C0000020202FE000000004040407F00000029
:10187C00000004020202040000000000000000004E
:10188C00000000000000000080808080808080804C
:10189C000002020400000000000000000000000034
:1018AC0000008080808000000019242222223F202A
:1018BC0008F8008080000000003F112020110E006D
:1018CC000000008080800000000E112020201100FC
:1018DC00000000808088F800000E112020103F20AE
:1018EC000000808080800000001F22222222130032
:1018FC00008080F0888888180020203F202000007D
:10190C000000808080808000006B94949493600031
:10191C0008F8008080800000203F210000203F203C
:10192C0000809898000000000020203F202000003C
:10193C00000000809898000000C08080807F00002C
:10194C0008F8000080808000203F24022D30200009
:10195C00000808F8000000000020203F20200000B4
:10196C008080808080808000203F20003F20003FCE
:10197C008080008080800000203F210000203F20DC
:10198C000000808080800000001F202020201F008D
:10199C00808000808000000080FFA12020110E00BC
:1019AC000000008080808000000E112020A0FF80AD
:1019BC00808080008080800020203F21200001005A
:1019CC0000008080808080000033242424241900AF
:1019DC00008080E0808000000000001F20200000BC
:1019EC008080000000808000001F202020103F20FD
:1019FC00808080000080808000010E30080601008D
:101A0C0080800080008080800F300C030C300F0031
:101A1C0000808000808080000020312E0E3120005C
:101A2C00808080000080808080818E70180601008C
:101A3C0000808080808080000021302C22213000AA
:101A4C0000000000807C020200000000003F4040CB
:101A5C0000000000FF00000000000000FF0000007C
:101A6C000002027C800000000040403F00000000AB
:101A7C000006010102020404000000000000000046
:101A8C0002030405060708090A0B0C0D0E0F1010B3
:101A9C000000000000000000000000000102030430
:041AAC000607080918
:041AB00031010008F8
:041AB4000D01000818
:0C1AB80001000000100000000024F400F9
:04000005080013F1EB
:00000001FF
